:020000040800F2
:1000000000280020E91500080D1500081315000848
:10001000191500081F15000825150008000000002C
:100020000000000000000000000000002B15000888
:100030003715000800000000431500084F150008A0
:100040003116000831160008311600083116000874
:100050003116000831160008311600083116000864
:100060003116000831160008311600083116000854
:100070003116000831160008311600083116000844
:100080003116000831160008311600083116000834
:100090003116000831160008311600083116000824
:1000A0003116000831160008311600083116000814
:1000B0005D15000831160008000000003116000828
:1000C0003116000800000000000000003116000892
:1000D0000000000031160008311600080000000082
:1000E0003116000831160008311600080000000023
:1000F0000000000000000000000000000000000000
:0C01000000000000000000005FF808F1A3
:10010C0010B5054C237833B9044B13B10448AFF345
:10011C0000800123237010BDA4000020000000000B
:10012C00142E000808B5034B1BB103490348AFF369
:10013C00008008BD00000000A8000020142E00085C
:10014C0080B500AF4FF40071024801F086FD00BF8E
:10015C0080BD00BF000C014080B582B000AF002311
:10016C007B6058E0304A7B68134419782F4A7B68CF
:10017C0013440A461A702E4A7B6852F823202D49E4
:10018C007B6831F813301946104601F037FD0346F1
:10019C001946254A7B6813440A461A70224A7B6822
:1001AC0013441A7821497B680B441B789A4208D176
:1001BC001D4A7B68134419781F4A7B6813440A460E
:1001CC001A701D4A7B6813441B78002B16D11B4AEE
:1001DC007B6832F81330312B0AD8184A7B6832F816
:1001EC001330013399B2154A7B6822F813100FE0D3
:1001FC00134A7B68134401221A7009E00F4A7B688A
:10020C00002122F813100E4A7B68134400221A7046
:10021C007B6801337B607B68022BA3D900BF00BFD6
:10022C000837BD4680BD00BF040000200800002038
:10023C000C0000201800002000000020D00000203E
:10024C00D800002080B483B000AF78607B68022BAC
:10025C0001D9002313E00C4A7B6813441B78002B54
:10026C000CD10A4A7B6832F81330012B06D8064AA7
:10027C007B68134401221A70012300E00023184606
:10028C000C37BD4680BC704700000020D000002019
:10029C0080B582B000AF78607B68022B01D9002357
:1002AC000EE0032000F096FF0346002B07D0064A11
:1002BC007B6813441B78012B01D1012300E0002340
:1002CC0018460837BD4680BDD800002080B400AF6A
:1002DC000D4B03221A600D4B02221A600C4B0522A7
:1002EC001A600C4B00221A60094B1B680A4A1360F7
:1002FC000A4B01221A60044B1B68094A136000BFA9
:10030C00BD4680BC704700BFF0000020F800002004
:10031C00FC000020EC000020E8000020E40000209D
:10032C00E000002080B400AF084B00221A60084B9C
:10033C001B68084A1360084B01221A60074B1B68A4
:10034C00074A136000BFBD4680BC7047EC0000201C
:10035C00FC000020E8000020E4000020F000002059
:10036C00E000002080B500AF664B1B68664A12683F
:10037C001146184600F066FB644B1B68022B1ED01E
:10038C00022B4EDC002B33D0012B4AD100F06CFC3D
:10039C00002000F01FFF0346002B04D0594B1B68B4
:1003AC00013B584A1360574B1B68002B41DC584BE0
:1003BC001B68544A1360554B02221A6039E000F056
:1003CC006BFC002000F006FF0346002B04D04D4BC5
:1003DC001B68013B4B4A13604A4B1B68002B2ADC01
:1003EC004C4B1B68474A1360484B00221A6022E0B2
:1003FC0000F06AFC002000F0EDFE0346002B04D058
:10040C00404B1B68013B3F4A13603E4B1B68002B63
:10041C0013DC414B1B683B4A13603C4B01221A60B6
:10042C000BE03A4B00221A603A4B1B68354A1360BA
:10043C0004E000BF02E000BF00E000BF374B1B68C8
:10044C00022B1ED0022B4EDC002B33D0012B4AD1B9
:10045C0000F052FC012000F0BDFE0346002B04D03E
:10046C00294B1B68013B284A1360274B1B68002B48
:10047C0041DC274B1B68244A1360284B02221A606C
:10048C0039E000F051FC012000F0A4FE0346002BE3
:10049C0004D01D4B1B68013B1B4A13601A4B1B6895
:1004AC00002B2ADC1B4B1B68174A13601B4B0022CA
:1004BC001A6022E000F050FC012000F08BFE034695
:1004CC00002B04D0104B1B68013B0F4A13600E4BE2
:1004DC001B68002B13DC104B1B680B4A13600F4B73
:1004EC0001221A600BE00D4B00221A60094B1B68AD
:1004FC00054A136004E000BF02E000BF00E000BF4B
:10050C0000BF80BDE8000020E0000020EC000020CF
:10051C00F8000020FC000020F0000020E400002087
:10052C0080B500AF042000F055FE0346002B01D02F
:10053C0000F02AFC1E4B1B681946042000F082FABE
:10054C000120FFF7A5FE0346002B0BD0184B1B68B0
:10055C000133184A126893FBF2F102FB01F29B1A69
:10056C00134A13600120FFF76DFE0346002B0BD0DE
:10057C000F4B1B6801330F4A126893FBF2F102FB1D
:10058C0001F29B1A0A4A13600220FFF75BFE034636
:10059C00002B0AD0064B1B68074A1360054B1A68E0
:1005AC00054B1B68D31A054A136000BF80BD00BF02
:1005BC00F4000020FC000020F0000020F8000020D7
:1005CC0080B500AF042000F005FE0346002B01D0DF
:1005DC0000F002FC1E4B1B681946032000F032FA97
:1005EC000120FFF755FE0346002B0BD0184B1B6860
:1005FC000133184A126893FBF2F102FB01F29B1AC9
:10060C00134A13600120FFF71DFE0346002B0BD08D
:10061C000F4B1B6801330F4A126893FBF2F102FB7C
:10062C0001F29B1A0A4A13600220FFF70BFE0346E5
:10063C00002B0AD0064B1B68074A1360054B1A683F
:10064C00054B1B68D31A054A136000BF80BD00BF61
:10065C00F4000020FC000020F8000020F000002036
:10066C0080B500AF042000F0B5FD0346002B01D08F
:10067C0000F0DAFB264B1B681946022000F0E2F969
:10068C000120FFF705FE0346002B0ED0204B1B6804
:10069C005A1C204B83FB02135911D317CB1A64211C
:1006AC0001FB03F3D31A1A4A13600120FFF7CAFDAA
:1006BC000346002B0ED0164B1B685A1C154B83FBA4
:1006CC0002135911D317CB1A642101FB03F3D31A6C
:1006DC000F4A13600220FFF7B5FD0346002B15D01F
:1006EC000B4B1B680C4A13600C4B1B680A4A1268B4
:1006FC0093FBF2F102FB01F29B1A084A1360064BC2
:10070C001A68064B1B68D31A054A136000BF80BDDC
:10071C00F40000201F85EB51FC000020F0000020AD
:10072C00F800002080B582B000AF78607B68092BA0
:10073C0000F2808101A252F823F000BF710700087B
:10074C00B9070008010800084908000891080008CA
:10075C00D90800082109000869090008B109000836
:10076C00F909000800220121B54801F05EFA0022C7
:10077C000221B34801F059FA00220421B04801F0DB
:10078C0054FA00220821AE4801F04FFA0022102141
:10079C00AB4801F04AFA00222021A94801F045FAA1
:1007AC0001224021A64801F040FA44E10122012136
:1007BC00A34801F03AFA00220221A14801F035FACF
:1007CC00002204219E4801F030FA012208219C48A5
:1007DC0001F02BFA01221021994801F026FA01228E
:1007EC002021974801F021FA01224021944801F080
:1007FC001CFA20E100220121914801F016FA002296
:10080C0002218F4801F011FA012204218C4801F0D9
:10081C000CFA002208218A4801F007FA0022102164
:10082C00874801F002FA01222021854801F0FDF9E8
:10083C0000224021824801F0F8F9FCE0002201215D
:10084C007F4801F0F2F9002202217D4801F0EDF918
:10085C00002204217A4801F0E8F9002208217848A6
:10086C0001F0E3F901221021754801F0DEF90122B3
:10087C002021734801F0D9F900224021704801F081
:10088C00D4F9D8E0012201216D4801F0CEF9002203
:10089C0002216B4801F0C9F900220421684801F0DB
:1008AC00C4F901220821664801F0BFF90122102188
:1008BC00634801F0BAF900222021614801F0B5F932
:1008CC00002240215E4801F0B0F9B4E00022012181
:1008DC005B4801F0AAF901220221594801F0A5F95F
:1008EC0000220421564801F0A0F9002208215448A6
:1008FC0001F09BF901221021514801F096F90022D8
:10090C0020214F4801F091F9002240214C4801F080
:10091C008CF990E000220121494801F086F901226E
:10092C000221474801F081F900220421444801F0DA
:10093C007CF900220821424801F077F900221021AD
:10094C003F4801F072F9002220213D4801F06DF979
:10095C00002240213A4801F068F96CE000220121A4
:10096C00374801F062F900220221354801F05DF9A7
:10097C0000220421324801F058F9012208213048A4
:10098C0001F053F9012210212D4801F04EF90122FA
:10099C0020212B4801F049F901224021284801F07F
:1009AC0044F948E000220121254801F03EF90022DB
:1009BC000221234801F039F900220421204801F0DA
:1009CC0034F9002208211E4801F02FF900221021D1
:1009DC001B4801F02AF900222021194801F025F9C1
:1009EC0000224021164801F020F924E000220121C8
:1009FC00134801F01AF900220221114801F015F9EF
:100A0C00002204210E4801F010F9002208210C48A4
:100A1C0001F00BF901221021094801F006F900221E
:100A2C002021074801F001F900224021044801F07F
:100A3C00FCF800E000BF00BF0837BD4680BD00BF1A
:100A4C00000C014080B582B000AF78603960834BF8
:100A5C001B68032B00F2C88001A252F823F000BFE0
:100A6C007D0A0008D70A00083B0B0008930B00080E
:100A7C007B687B4A82FB03129210DB17D31A184651
:100A8C00FFF750FE00224FF48051764801F0CDF86C
:100A9C0001224FF40051734801F0C7F801224FF4C2
:100AAC008041704801F0C1F801224FF400416D48BB
:100ABC0001F0BBF8022000F08DFB0346002B00F088
:100ACC00BF80664B01221A60BAE07A68644B83FBE4
:100ADC0002139910D317C91A0B469B000B445B00E9
:100AEC00D11A0846FFF71EFE01224FF480515D48D3
:100AFC0001F09BF800224FF400515A4801F095F890
:100B0C0001224FF48041574801F08FF801224FF435
:100B1C000041544801F089F8022000F05BFB0346C9
:100B2C00002B00F08F804D4B02221A608AE03B684C
:100B3C004B4A82FB03129210DB17D31A1846FFF7AD
:100B4C00F1FD01224FF48051464801F06EF801226C
:100B5C004FF40051434801F068F800224FF48041F3
:100B6C00404801F062F801224FF400413D4801F089
:100B7C005CF8022000F02EFB0346002B64D0374BB0
:100B8C0003221A6060E03A68354B83FB021399101C
:100B9C00D317C91A0B469B000B445B00D11A0846AD
:100BAC00FFF7C0FD01224FF480512E4801F03DF8B3
:100BBC0001224FF400512B4801F037F801224FF479
:100BCC008041284801F031F800224FF400412548BB
:100BDC0001F02BF8022000F0FDFA0346002B35D073
:100BEC001E4B00221A6031E07B681D4A82FB031207
:100BFC009210DB17D31A1846FFF794FD01224FF41D
:100C0C008051184801F011F801224FF40051154899
:100C1C0001F00BF801224FF48041124801F005F865
:100C2C0001224FF400410F4800F0FFFF022000F0BA
:100C3C00D1FA0346002B0BD0084B00221A6007E0B8
:100C4C0000BF06E000BF04E000BF02E000BF00E010
:100C5C0000BF00BF0837BD4680BD00BFC0000020EC
:100C6C0067666666000C014080B500AF01224FF448
:100C7C008061084800F0D9FF01224FF4006105485B
:100C8C0000F0D3FF00224FF48051024800F0CDFF5A
:100C9C0000BF80BD0008014080B500AF01224FF4B9
:100CAC008061084800F0C1FF00224FF40061054844
:100CBC0000F0BBFF01224FF48051024800F0B5FF59
:100CCC0000BF80BD0008014080B500AF00224FF48A
:100CDC008061084800F0A9FF01224FF4006105482B
:100CEC0000F0A3FF01224FF48051024800F09DFF59
:100CFC0000BF80BD0008014080B500AF01224FF459
:100D0C000051084800F091FF01224FF48041054842
:100D1C0000F08BFF00224FF40041024800F085FFE9
:100D2C0000BF80BD0008014080B500AF01224FF428
:100D3C000051084800F079FF00224FF4804105482B
:100D4C0000F073FF01224FF40041024800F06DFFE8
:100D5C0000BF80BD0008014080B500AF00224FF4F9
:100D6C000051084800F061FF01224FF48041054812
:100D7C0000F05BFF01224FF40041024800F055FFE8
:100D8C0000BF80BD0008014080B500AF01224FF4C8
:100D9C008061104800F049FF01224FF400610D48BA
:100DAC0000F043FF4FF480510A4800F056FF012237
:100DBC004FF40051074800F038FF01224FF48041F6
:100DCC00044800F032FF4FF40041024800F045FFA8
:100DDC0000BF80BD0008014080B500AF01224FF478
:100DEC008061104800F021FF4FF400610D4800F0C5
:100DFC0034FF01224FF480510A4800F016FF012203
:100E0C004FF40051074800F010FF4FF480410548A3
:100E1C0000F023FF01224FF40041024800F005FFCF
:100E2C0000BF80BD0008014080B500AF4FF4806169
:100E3C00104800F012FF01224FF400610D4800F041
:100E4C00F4FE01224FF480510A4800F0EEFE4FF4FC
:100E5C000051084800F001FF01224FF48041054881
:100E6C0000F0E3FE01224FF40041024800F0DDFEE9
:100E7C0000BF80BD0008014080B582B000AF00F01B
:100E8C00D3FB00F0A7F800F0E1F800F02BF90023F9
:100E9C007B60454801F026FB00F0F2F9434B3B60C8
:100EAC00FFF714FA424B1B6864226421184600F0C9
:100EBC003FFA404B1B6864226421184600F038FA54
:100ECC003D4B1B6819221921184600F031FA3B4B97
:100EDC001B6832223221184600F02AFA384B1B6864
:100EEC0032223221184600F023FA3B6800224FF4DC
:100EFC00FA71184600F01CFA00F0EAF97B68032B33
:100F0C0044D801A252F823F0250F0008430F000823
:100F1C00610F00087F0F0008FFF724FA0020FFF78D
:100F2C0091F90346002B36D0264B1B68264A1360DA
:100F3C0001237B602FE0FFF793FB0020FFF782F982
:100F4C000346002B29D0214B1B681F4A1360022338
:100F5C007B6022E0FFF734FB0020FFF773F90346B8
:100F6C00002B1CD01A4B1B68174A136003237B60A1
:100F7C0015E0FFF7D5FA0020FFF764F90346002BC4
:100F8C000FD000237B60FFF7CDF90AE000237B60D4
:100F9C00FFF7C8F906E000BFAEE700BFACE700BF43
:100FAC00AAE700BFA8E700BF000100204D01000820
:100FBC002000002024000020280000202C0000200D
:100FCC0030000020FC000020F4000020F80000207D
:100FDC00F000002080B590B000AF07F11803282274
:100FEC000021184601F044FE3B1D00221A605A6095
:100FFC009A60DA601A610223BB610123BB62102381
:10100C00FB6200237B6307F11803184600F03EFED9
:10101C000346002B01D000F0D8F80F237B6000238F
:10102C00BB600023FB6000233B6100237B613B1D05
:10103C000021184601F0AAF80346002B01D000F05D
:10104C00C4F800BF4037BD4680BD000080B586B0F7
:10105C0000AF07F1080300221A605A609A60DA6048
:10106C003B4600221A605A601D4B4FF080421A60BA
:10107C001B4B41F63F725A60194B00229A60184B79
:10108C000922DA60164B00221A61154B00229A6174
:10109C00134801F0D7F90346002B01D000F095F866
:1010AC004FF48053BB6007F1080319460C4801F05C
:1010BC0055FB0346002B01D000F087F800233B6062
:1010CC0000237B603B461946054801F02DFD034685
:1010DC00002B01D000F079F800BF1837BD4680BD59
:1010EC000001002080B586B000AF07F10803002294
:1010FC001A605A609A60DA60284B9B69274A43F061
:10110C0004039361254B9B6903F004037B607B68AC
:10111C00224B9B69214A43F0080393611F4B9B6947
:10112C0003F008033B603B6800224FF27F211C4810
:10113C0000F07BFD00224FF47C411A4800F075FD55
:10114C000E23BB600023FB6001233B6107F1080306
:10115C001946144800F0D8FB4FF27F23BB600123E3
:10116C00FB6000233B6102237B6107F108031946F6
:10117C000B4800F0C9FB4FF47C43BB600123FB60C0
:10118C0000233B6102237B6107F1080319460548E4
:10119C0000F0BAFB00BF1837BD4680BD00100240FE
:1011AC00000C01400008014080B582B000AF7860AF
:1011BC007B681B68B3F1804F01D1FEF7CDFF00F0C7
:1011CC0079F800BF0837BD4680BD80B400AF72B659
:1011DC0000BFFEE780B483B000AF7860094A7B683B
:1011EC0052F82330012B06D1064A7B68002142F8C5
:1011FC002310012300E0002318460C37BD4680BCA9
:10120C00704700BF7401002080B400AF034B012273
:10121C001A6000BFBD4680BC704700BF740100203F
:10122C0080B400AF034B01225A6000BFBD4680BCA6
:10123C00704700BF7401002080B400AF034B012243
:10124C009A6000BFBD4680BC704700BF740100208F
:10125C0080B400AF034B0122DA6000BFBD4680BCF6
:10126C00704700BF7401002080B400AF034B012213
:10127C001A6100BFBD4680BC704700BF74010020DE
:10128C0080B582B000AF0AE0094B1B687B60084B4D
:10129C001B685B69064A1360786801F0E1FC044B3B
:1012AC001B68002BF0D100BF00BF0837BD4680BDC6
:1012BC004801002080B400AF044B1B685A68013A07
:1012CC005A6000BFBD4680BC704700BF480100207B
:1012DC0080B582B000AF154B1B687B601CE07B684F
:1012EC005B68002B1CD17B681B68984700F098F852
:1012FC007B689B68002B09DD7B6818687B689B68A2
:10130C0019467B689B681A4600F012F8786801F061
:10131C00A7FC064B1B687B607B68002BDFD100E0D1
:10132C0000BF00BF0837BD4680BD00BF480100208C
:10133C0080B588B000AFF860B9607A60374B1B6835
:10134C00BB61182001F084FC03463B613B69FA68E1
:10135C001A60BA683B695A607A683B699A603B6963
:10136C000022DA603B6900225A6100237B610EE0A7
:10137C00BB695B687A6913447B613B695B687A691A
:10138C009A4208DCBB69FB61BB695B69BB61BB69E9
:10139C00002BEDD100E000BF204B1B68002B03D1CC
:1013AC001E4A3B69136035E0BB69002B09D13B69D0
:1013BC005A687B69D21A3B695A60FB693A695A616F
:1013CC0028E0164B1B68BA699A420DD1BB695A6862
:1013DC003B695B68D21ABB695A603B69BA695A614E
:1013EC000E4A3B69136015E03B695A68BB695B6840
:1013FC007969CB1AD21A3B695A60FB693A695A610E
:10140C00BB695A683B695B68D21ABB695A603B6915
:10141C00BA695A6100BF2037BD4680BD4801002023
:10142C0080B483B000AF0A4B1B68002B02D10123A0
:10143C00FB7106E00023FB71054B1B685B69044ADA
:10144C001360FB7918460C37BD4680BC704700BF53
:10145C004801002080B485B000AF154B9B69144A3D
:10146C0043F001039361124B9B6903F00103BB60D2
:10147C00BB680F4BDB690E4A43F08053D3610C4BB6
:10148C00DB6903F080537B607B680A4B5B68FB6015
:10149C00FB6823F0E063FB60FB6843F08063FB6058
:1014AC00044AFB68536000BF1437BD4680BC7047CC
:1014BC00001002400000014080B584B000AF78609D
:1014CC007B681B68B3F1804F13D10C4BDB690B4A63
:1014DC0043F00103D361094BDB6903F00103FB60AB
:1014EC00FB68002200211C2000F0D7F91C2000F022
:1014FC00F0F900BF1037BD4680BD00BF00100240A0
:10150C0080B400AFFEE780B400AFFEE780B400AF5C
:10151C00FEE780B400AFFEE780B400AFFEE780B416
:10152C0000AF00BFBD4680BC704780B400AF00BFA9
:10153C00BD4680BC704780B400AF00BFBD4680BCC8
:10154C00704780B500AF00F0B5F800BF80BD00005B
:10155C0080B500AF024801F011F800BF80BD00BF9C
:10156C000001002080B586B000AF7860144A154B9E
:10157C00D31A7B617B693B61134B1B68002B02D137
:10158C00114B124A1A60104B1A687B6813443A6963
:10159C009A4207D201F032FB03460C221A604FF03C
:1015AC00FF3309E0084B1B68FB60074B1A687B682C
:1015BC001344054A1360FB6818461837BD4680BDB6
:1015CC000028002000040000C4000020B00100200E
:1015DC0080B400AF00BFBD4680BC7047FFF7F8FF7A
:1015EC000B480C490C4A002302E0D458C450043375
:1015FC00C4188C42F9D3094A094C002301E013604A
:10160C000432A242FBD301F0FFFAFFF735FC70471E
:10161C0000000020A4000020582E0008A400002088
:10162C00B0010020FEE7000080B500AF084B1B683E
:10163C00074A43F010031360032000F023F90F2036
:10164C0000F008F8FFF706FF0023184680BD00BF26
:10165C000020024080B582B000AF7860124B1A684F
:10166C00124B1B7819464FF47A73B3FBF1F3B2FBB0
:10167C00F3F3184600F03BF90346002B01D001238D
:10168C000EE07B680F2B0AD8002279684FF0FF30F0
:10169C0000F003F9064A7B681360002300E0012385
:1016AC0018460837BD4680BD340000203C000020A1
:1016BC003800002080B400AF054B1B781A46054B50
:1016CC001B681344034A136000BFBD4680BC7047BF
:1016DC003C0000209C01002080B400AF024B1B6832
:1016EC001846BD4680BC70479C01002080B485B074
:1016FC0000AF78607B6803F00703FB600C4BDB6882
:10170C00BB60BA684FF6FF031340BB60FB681A025C
:10171C00BB68134343F0BF6343F40033BB60044A1C
:10172C00BB68D36000BF1437BD4680BC704700BF98
:10173C0000ED00E080B400AF044BDB681B0A03F043
:10174C0007031846BD4680BC704700BF00ED00E0A3
:10175C0080B483B000AF0346FB7197F90730002BC0
:10176C000BDBFB7903F01F02064997F907305B0985
:10177C00012000FA02F241F8232000BF0C37BD46CD
:10178C0080BC704700E100E080B483B000AF03463A
:10179C003960FB7197F90730002B0ADB3B68DAB232
:1017AC000C4997F907301201D2B20B4483F800238D
:1017BC000AE03B68DAB20849FB7903F00F03043BFB
:1017CC001201D2B20B441A7600BF0C37BD4680BC56
:1017DC00704700BF00E100E000ED00E080B489B08C
:1017EC0000AFF860B9607A60FB6803F00703FB6137
:1017FC00FB69C3F10703042B28BF0423BB61FB69FE
:10180C000433062B02D9FB69033B00E000237B6108
:10181C004FF0FF32BB6902FA03F3DA43BB681A409C
:10182C007B699A404FF0FF317B6901FA03F3D9438E
:10183C007B680B40134318462437BD4680BC704769
:10184C0080B582B000AF78607B68013BB3F1807FDC
:10185C0001D301230FE00A4A7B68013B53600F213F
:10186C004FF0FF30FFF790FF054B00229A60044BBE
:10187C0007221A60002318460837BD4680BD00BFFA
:10188C0010E000E080B582B000AF78607868FFF7B8
:10189C002DFF00BF0837BD4680BD80B586B000AFB8
:1018AC000346B9607A60FB7300237B61FFF742FF4C
:1018BC0078617A68B9687869FFF790FF024697F902
:1018CC000F3011461846FFF75FFF00BF1837BD46B3
:1018DC0080BD80B582B000AF0346FB7197F907302D
:1018EC001846FFF735FF00BF0837BD4680BD80B5F1
:1018FC0082B000AF78607868FFF7A2FF0346184605
:10190C000837BD4680BD000080B48BB000AF786056
:10191C00396000237B6200233B6248E101227B6A31
:10192C0002FA03F3FB613B681B68FA691340BB6165
:10193C00BA69FB699A4240F037813B685B68A34AFD
:10194C0093425ED0A14A934275D8A14A934258D093
:10195C009F4A93426FD89F4A934252D09D4A9342DA
:10196C0069D89D4A93424CD09B4A934263D89B4A78
:10197C00934246D0994A93425DD8122B2AD8122B07
:10198C0059D801A252F823F00F1A0008E9190008DF
:10199C00FB1900083D1A0008431A0008431A0008F6
:1019AC00431A0008431A0008431A0008431A000897
:1019BC00431A0008431A0008431A0008431A000887
:1019CC00431A0008431A0008431A0008F1190008CA
:1019DC00051A0008824A934213D02CE03B68DB685E
:1019EC003B6229E03B68DB6804333B6224E03B68E4
:1019FC00DB6808333B621FE03B68DB680C333B62FF
:101A0C001AE03B689B68002B02D104233B6213E075
:101A1C003B689B68012B05D108233B627B68FA6904
:101A2C001A6109E008233B627B68FA695A6103E09A
:101A3C0000233B6200E000BFBB69FF2B01D87B6831
:101A4C0001E07B6804337B61BB69FF2B02D87B6AA6
:101A5C009B0002E07B6A083B9B003B617B691A6838
:101A6C000F213B6901FA03F3DB431A40396A3B69E6
:101A7C0001FA03F31A437B691A603B685B6803F055
:101A8C008053002B00F09080564B9B69554A43F0D5
:101A9C0001039361534B9B6903F00103BB60BB686B
:101AAC00514A7B6A9B08023352F82330FB607B6AF5
:101ABC0003F003039B000F2202FA03F3DB43FA68E3
:101ACC001340FB607B68494A93420DD07B68484ABF
:101ADC00934207D07B68474A934201D1022304E02A
:101AEC00032302E0012300E000237A6A02F00302E0
:101AFC0092009340FA681343FB603B497B6A9B0856
:101B0C000233FA6841F823203B685B6803F48013C6
:101B1C00002B06D0384B9A683749BB6913438B604E
:101B2C0006E0354B9A68BB69DB43334913408B6045
:101B3C003B685B6803F40013002B06D02E4BDA686D
:101B4C002D49BB691343CB6006E02B4BDA68BB69AC
:101B5C00DB4329491340CB603B685B6803F40033DB
:101B6C00002B06D0244B5A682349BB6913434B60A6
:101B7C0006E0214B5A68BB69DB431F4913404B609D
:101B8C003B685B6803F48033002B06D01A4B1A6851
:101B9C001949BB6913430B6006E0174B1A68BB6904
:101BAC00DB43154913400B607B6A01337B623B6856
:101BBC001A687B6A22FA03F3002B7FF4AFAE00BFE6
:101BCC0000BF2C37BD4680BC704700BF00003210F0
:101BDC000000311000002210000021100000121033
:101BEC0000001110001002400000014000080140EC
:101BFC00000C0140001001400004014080B485B08D
:101C0C0000AF78600B467B807B689A687B881340BA
:101C1C00002B02D00123FB7301E00023FB73FB7B41
:101C2C0018461437BD4680BC704780B483B000AFF3
:101C3C0078600B467B8013467B707B78002B03D03F
:101C4C007A887B681A6103E07B881A047B681A61C6
:101C5C0000BF0C37BD4680BC704780B485B000AF68
:101C6C0078600B467B807B68DB68FB607A88FB685E
:101C7C0013401A04FB68D9437B880B401A437B68DA
:101C8C001A6100BF1437BD4680BC704780B586B062
:101C9C0000AF78607B68002B01D101236CE27B687C
:101CAC001B6803F00103002B00F08780924B5B68EC
:101CBC0003F00C03042B0CD08F4B5B6803F00C036C
:101CCC00082B12D18C4B5B6803F48033B3F5803F47
:101CDC000BD1894B1B6803F40033002B6CD07B6851
:101CEC005B68002B68D1012346E27B685B68B3F527
:101CFC00803F06D1804B1B687F4A43F480331360CE
:101D0C002EE07B685B68002B0CD17B4B1B687A4AFE
:101D1C0023F480331360784B1B68774A23F48023B9
:101D2C0013601DE07B685B68B3F5A02F0CD1724B80
:101D3C001B68714A43F4802313606F4B1B686E4A17
:101D4C0043F4803313600BE06B4B1B686A4A23F43B
:101D5C0080331360684B1B68674A23F4802313603D
:101D6C007B685B68002B13D0FFF7B6FC386108E08A
:101D7C00FFF7B2FC02463B69D31A642B01D903234B
:101D8C00FAE15D4B1B6803F40033002BF0D014E038
:101D9C00FFF7A2FC386108E0FFF79EFC02463B69A6
:101DAC00D31A642B01D90323E6E1534B1B6803F4CC
:101DBC000033002BF0D100E000BF7B681B6803F000
:101DCC000203002B63D04C4B5B6803F00C03002B1D
:101DDC000BD0494B5B6803F00C03082B1CD1464B12
:101DEC005B6803F48033002B16D1434B1B6803F064
:101DFC000203002B05D07B681B69012B01D001234A
:101E0C00BAE13D4B1B6823F0F8027B685B69DB0091
:101E1C00394913430B603AE07B681B69002B20D0D7
:101E2C00364B01221A60FFF757FC386108E0FFF7C8
:101E3C0053FC02463B69D31A022B01D903239BE1C5
:101E4C002D4B1B6803F00203002BF0D02A4B1B68B0
:101E5C0023F0F8027B685B69DB00274913430B60B6
:101E6C0015E0264B00221A60FFF736FC386108E0BB
:101E7C00FFF732FC02463B69D31A022B01D903232C
:101E8C007AE11D4B1B6803F00203002BF0D17B6839
:101E9C001B6803F00803002B3AD07B689B69002B6E
:101EAC0019D0174B01221A60FFF716FC386108E0B5
:101EBC00FFF712FC02463B69D31A022B01D903230C
:101ECC005AE10D4B5B6A03F00203002BF0D00120AA
:101EDC0000F09AFA1CE00A4B00221A60FFF7FCFB98
:101EEC0038610FE0FFF7F8FB02463B69D31A022B6F
:101EFC0008D9032340E100BF001002400000424219
:101F0C00800442429E4B5B6A03F00203002BE9D132
:101F1C007B681B6803F00403002B00F0A6800023F1
:101F2C00FB75974BDB6903F08053002B0DD1944B61
:101F3C00DB69934A43F08053D361914BDB6903F027
:101F4C008053BB60BB680123FB758E4B1B6803F48D
:101F5C008073002B18D18B4B1B688A4A43F4807317
:101F6C001360FFF7B9FB386108E0FFF7B5FB0246D9
:101F7C003B69D31A642B01D90323FDE0814B1B6809
:101F8C0003F48073002BF0D07B68DB68012B06D147
:101F9C007B4B1B6A7A4A43F0010313622DE07B688A
:101FAC00DB68002B0CD1764B1B6A754A23F00103BE
:101FBC001362734B1B6A724A23F0040313621CE016
:101FCC007B68DB68052B0CD16D4B1B6A6C4A43F0AC
:101FDC00040313626A4B1B6A694A43F001031362E0
:101FEC000BE0674B1B6A664A23F001031362644BD8
:101FFC001B6A634A23F0040313627B68DB68002BC3
:10200C0015D0FFF769FB38610AE0FFF765FB024664
:10201C003B69D31A41F28832934201D90323ABE0D6
:10202C00574B1B6A03F00203002BEED014E0FFF7B2
:10203C0053FB38610AE0FFF74FFB02463B69D31AAA
:10204C0041F28832934201D9032395E04C4B1B6A31
:10205C0003F00203002BEED1FB7D012B05D1484B85
:10206C00DB69474A23F08053D3617B68DB69002B23
:10207C0000F08180424B5B6803F00C03082B61D0AD
:10208C007B68DB69022B46D13F4B00221A60FFF7BD
:10209C0023FB386108E0FFF71FFB02463B69D31AAC
:1020AC00022B01D9032367E0354B1B6803F0007347
:1020BC00002BF0D17B681B6AB3F5803F08D1304B05
:1020CC005B6823F400327B689B682D4913434B609B
:1020DC002B4B5B6823F474127B68196A7B685B6A10
:1020EC000B43274913434B60274B01221A60FFF720
:1020FC00F3FA386108E0FFF7EFFA02463B69D31AAE
:10210C00022B01D9032337E01D4B1B6803F000732E
:10211C00002BF0D02FE01C4B00221A60FFF7DCFAEA
:10212C00386108E0FFF7D8FA02463B69D31A022B54
:10213C0001D9032320E0124B1B6803F00073002B22
:10214C00F0D118E07B68DB69012B01D1012313E08E
:10215C000B4B5B68FB60FB6803F480327B681B6A8B
:10216C009A4206D1FB6803F470127B685B6A9A4250
:10217C0001D0012300E0002318461837BD4680BD6E
:10218C0000100240007000406000424280B584B0F4
:10219C0000AF786039607B68002B01D10123D0E05F
:1021AC006A4B1B6803F007033A689A4210D9674BD5
:1021BC001B6823F0070265493B6813430B60634BB4
:1021CC001B6803F007033A689A4201D00123B8E078
:1021DC007B681B6803F00203002B20D07B681B6814
:1021EC0003F00403002B05D0594B5B68584A43F4A9
:1021FC00E06353607B681B6803F00803002B05D079
:10220C00534B5B68524A43F460535360504B5B68CA
:10221C0023F0F0027B689B684D4913434B607B684D
:10222C001B6803F00103002B40D07B685B68012B1B
:10223C0007D1474B1B6803F40033002B15D1012346
:10224C007FE07B685B68022B07D1414B1B6803F076
:10225C000073002B09D1012373E03D4B1B6803F085
:10226C000203002B01D101236BE0394B5B6823F097
:10227C0003027B685B68364913434B60FFF72CFA0B
:10228C00F8600AE0FFF728FA0246FB68D31A41F21D
:10229C008832934201D9032353E02D4B5B6803F042
:1022AC000C027B685B689B009A42EBD1274B1B6846
:1022BC0003F007033A689A4210D2244B1B6823F0B0
:1022CC00070222493B6813430B60204B1B6803F049
:1022DC0007033A689A4201D0012332E07B681B68FD
:1022EC0003F00403002B08D0194B5B6823F4E06265
:1022FC007B68DB68164913434B607B681B6803F0F3
:10230C000803002B09D0124B5B6823F460527B68E6
:10231C001B69DB000E4913434B6000F021F80246A9
:10232C000B4B5B681B0903F00F030A49CB5C22FAC9
:10233C0003F3094A1360094B1B681846FFF78AF927
:10234C00002318461037BD4680BD00BF0020024058
:10235C00001002402C2E0008340000203800002011
:10236C0080B487B000AF0023FB600023BB60002368
:10237C007B6100237B6000233B611E4B5B68FB6031
:10238C00FB6803F00C03042B02D0082B03D027E0CE
:10239C00194B3B6127E0FB689B0C03F00F03174ABA
:1023AC00D35C7B60FB6803F48033002B10D0114BA3
:1023BC005B685B0C03F00103114AD35CBB607B6868
:1023CC000D4A02FB03F2BB68B2FBF3F37B6104E042
:1023DC007B680C4A02FB03F37B617B693B6102E087
:1023EC00054B3B6100BF3B6918461C37BD4680BCA2
:1023FC00704700BF0010024000127A003C2E00080B
:10240C004C2E000800093D0080B485B000AF786008
:10241C000A4B1B680A4AA2FB03235B0A7A6802FB7D
:10242C0003F3FB6000BFFB685A1EFA60002BF9D166
:10243C0000BF00BF1437BD4680BC7047340000207D
:10244C00D34D621080B582B000AF78607B68002BF2
:10245C0001D1012341E07B6893F83D30DBB2002BC6
:10246C0006D17B68002283F83C207868FFF724F8BB
:10247C007B68022283F83D207B681A687B680433F2
:10248C001946104600F056FA7B68012283F8462064
:10249C007B68012283F83E207B68012283F83F2071
:1024AC007B68012283F840207B68012283F841205D
:1024BC007B68012283F842207B68012283F8432049
:1024CC007B68012283F844207B68012283F8452035
:1024DC007B68012283F83D20002318460837BD464F
:1024EC0080BD000080B485B000AF78607B6893F845
:1024FC003D30DBB2012B01D0012335E07B68022299
:10250C0083F83D207B681B68DA687B681B6842F0A7
:10251C000102DA607B681B68164A934209D07B681B
:10252C001B68B3F1804F04D07B681B68124A93423E
:10253C0011D17B681B689B6803F00703FB60FB6889
:10254C00062B10D07B681B681A687B681B6842F0EE
:10255C0001021A6007E07B681B681A687B681B68BD
:10256C0042F001021A60002318461437BD4680BCA5
:10257C00704700BF002C01400004004080B584B0BF
:10258C0000AF78607B681B68DB68FB607B681B684E
:10259C001B69BB60BB6803F00203002B20D0FB68F7
:1025AC0003F00203002B1BD07B681B686FF0020248
:1025BC001A617B6801221A777B681B689B6903F0A0
:1025CC000303002B03D0786800F098F905E07868D5
:1025DC0000F08BF9786800F09AF97B6800221A7782
:1025EC00BB6803F00403002B20D0FB6803F004034A
:1025FC00002B1BD07B681B686FF004021A617B6890
:10260C0002221A777B681B689B6903F44073002BCA
:10261C0003D0786800F072F905E0786800F065F98D
:10262C00786800F074F97B6800221A77BB6803F0B5
:10263C000803002B20D0FB6803F00803002B1BD0F1
:10264C007B681B686FF008021A617B6804221A779A
:10265C007B681B68DB6903F00303002B03D07868ED
:10266C0000F04CF905E0786800F03FF9786800F06C
:10267C004EF97B6800221A77BB6803F01003002B1D
:10268C0020D0FB6803F01003002B1BD07B681B6869
:10269C006FF010021A617B6808221A777B681B683E
:1026AC00DB6903F44073002B03D0786800F026F943
:1026BC0005E0786800F019F9786800F028F97B6873
:1026CC0000221A77BB6803F00103002B0CD0FB68C7
:1026DC0003F00103002B07D07B681B686FF001022D
:1026EC001A617868FEF760FDBB6803F08003002B6D
:1026FC000CD0FB6803F08003002B07D07B681B68B1
:10270C006FF080021A61786800F06FFABB6803F012
:10271C004003002B0CD0FB6803F04003002B07D0C8
:10272C007B681B686FF040021A61786800F0F8F85B
:10273C00BB6803F02003002B0CD0FB6803F02003D4
:10274C00002B07D07B681B686FF020021A61786839
:10275C0000F042FA00BF1037BD4680BD80B584B092
:10276C0000AF786039600023FB737B6893F83C30D2
:10277C00012B01D10223B4E07B68012283F83C20B9
:10278C007B68022283F83D207B681B689B68BB60DA
:10279C00BB6823F07703BB60BB6823F47F43BB604B
:1027AC007B681B68BA689A603B681B68B3F5005F6E
:1027BC003ED0B3F5005F00F28780B3F5805F00F088
:1027CC008680B3F5805F7FD8702B1AD0702B7BD8A6
:1027DC00602B50D0602B77D8502B3CD0502B73D81B
:1027EC00402B58D0402B6FD8302B64D0302B6BD86B
:1027FC00202B60D0202B67D8002B5CD0102B5AD00C
:10280C0062E07B6818683B6899683B685A683B686B
:10281C00DB6800F06AF97B681B689B68BB60BB686F
:10282C0043F07703BB607B681B68BA689A604FE023
:10283C007B6818683B6899683B685A683B68DB683A
:10284C0000F053F97B681B689A687B681B6842F43C
:10285C0080429A603CE07B6818683B6859683B682A
:10286C00DB681A4600F0CAF87B681B6850211846D2
:10287C0000F021F92CE07B6818683B6859683B68CC
:10288C00DB681A4600F0E8F87B681B686021184684
:10289C0000F011F91CE07B6818683B6859683B68CC
:1028AC00DB681A4600F0AAF87B681B6840211846C2
:1028BC0000F001F90CE07B681A683B681B6819464C
:1028CC00104600F0F8F803E00123FB7300E000BFB2
:1028DC007B68012283F83D207B68002283F83C2032
:1028EC00FB7B18461037BD4680BD80B483B000AF6B
:1028FC00786000BF0C37BD4680BC704780B483B095
:10290C0000AF786000BF0C37BD4680BC704780B408
:10291C0083B000AF786000BF0C37BD4680BC7047F9
:10292C0080B483B000AF786000BF0C37BD4680BC6C
:10293C007047000080B485B000AF786039607B6868
:10294C001B68FB607B682B4A934207D07B68B3F112
:10295C00804F03D07B68284A934208D1FB6823F050
:10296C007003FB603B685B68FA681343FB607B6831
:10297C00204A934207D07B68B3F1804F03D07B6829
:10298C001D4A934208D1FB6823F44073FB603B68FB
:10299C00DB68FA681343FB60FB6823F080023B683A
:1029AC005B691343FB607B68FA681A603B689A6842
:1029BC007B68DA623B681A687B689A627B680D4AAE
:1029CC00934203D13B681A697B681A637B680122C6
:1029DC005A617B681B6903F00103002B05D07B68EF
:1029EC001B6923F001027B681A6100BF1437BD46D6
:1029FC0080BC7047002C01400004004080B487B0BC
:102A0C0000AFF860B9607A60FB681B6A7B61FB6899
:102A1C001B6A23F00102FB681A62FB689B693B612D
:102A2C003B6923F0F0033B617B681B013A6913435C
:102A3C003B617B6923F00A037B617A69BB681343B2
:102A4C007B61FB683A699A61FB687A691A6200BF1C
:102A5C001C37BD4680BC704780B487B000AFF860AF
:102A6C00B9607A60FB681B6A7B61FB681B6A23F0A8
:102A7C001002FB681A62FB689B693B613B6923F49B
:102A8C0070433B617B681B033A6913433B617B6971
:102A9C0023F0A0037B61BB681B017A6913437B6144
:102AAC00FB683A699A61FB687A691A6200BF1C3745
:102ABC00BD4680BC704780B485B000AF786039608B
:102ACC007B689B68FB60FB6823F07003FB603A68D3
:102ADC00FB68134343F00703FB607B68FA689A605A
:102AEC0000BF1437BD4680BC704780B487B000AFC0
:102AFC00F860B9607A603B60FB689B687B617B69BE
:102B0C0023F47F437B613B681A027B681A43BB68E2
:102B1C0013437A6913437B61FB687A699A6000BF3F
:102B2C001C37BD4680BC704780B485B000AF786060
:102B3C0039607B6893F83C30012B01D1022341E0D2
:102B4C007B68012283F83C207B68022283F83D20BD
:102B5C007B681B685B68FB607B681B689B68BB6061
:102B6C00FB6823F07003FB603B681B68FA68134337
:102B7C00FB607B681B68FA685A607B681B68144AA8
:102B8C00934209D07B681B68B3F1804F04D07B68FB
:102B9C001B68104A93420CD1BB6823F08003BB60C6
:102BAC003B685B68BA681343BB607B681B68BA6898
:102BBC009A607B68012283F83D207B68002283F8B1
:102BCC003C20002318461437BD4680BC704700BF1C
:102BDC00002C01400004004080B483B000AF78604A
:102BEC0000BF0C37BD4680BC704780B483B000AFCB
:102BFC00786000BF0C37BD4680BC7047014B18682D
:102C0C00704700BF4000002070B500260C4D0D4CE5
:102C1C00641BA410A64209D100F0F6F800260A4D58
:102C2C000A4C641BA410A64205D170BD55F8043B98
:102C3C0098470136EEE755F8043B98470136F2E722
:102C4C00502E0008502E0008502E0008542E00085C
:102C5C00024B0146186800F05FB800BF400000202E
:102C6C00024B0146186800F00BB800BF4000002072
:102C7C0003460244934200D1704703F8011BF9E765
:102C8C0038B50546002943D051F8043C0C1F002BE5
:102C9C00B8BFE41800F0AAF81E4A1368104633B9FE
:102CAC00636014602846BDE8384000F0A5B8A34224
:102CBC000AD921686218934201BF1A685B685218DE
:102CCC00226063600460EDE71A465B680BB1A342B7
:102CDC00FAD911685018A0420BD120680144501841
:102CEC0083421160DED118685B6801441160536047
:102CFC00D8E702D90C232B60D4E7206821188B422B
:102D0C0001BF19685B680918216063605460C9E7EA
:102D1C0038BD00BFC8000020F8B5CD1C25F0030558
:102D2C0008350C2D38BF0C25002D064601DBA942B9
:102D3C0003D90C2333600020F8BD00F057F821496B
:102D4C000A6814469CB9204F3B6823B9214630468B
:102D5C0000F03CF838602946304600F037F8431C48
:102D6C0023D10C233046336000F046F8E3E72368A8
:102D7C005B1B17D40B2B03D923601C44256004E088
:102D8C006368A2420CBF0B605360304600F034F80D
:102D9C0004F10B00231D20F00700C21ACCD01B1A23
:102DAC00A350C9E722466468CCE7C41C24F0030492
:102DBC00A042E3D0211A304600F008F80130DDD1F2
:102DCC00CFE700BFC8000020CC00002038B500239E
:102DDC00054D044608462B60FEF7C4FB431C02D18C
:102DEC002B6803B1236038BDA0010020014800F01E
:102DFC0009B800BFA8010020014800F004B800BFCA
:102E0C00A801002070477047F8B500BFF8BC08BC9B
:102E1C009E467047F8B500BFF8BC08BC9E4670478C
:102E2C00000000000000000001020304060708096E
:102E3C0002030405060708090A0B0C0D0E0F1010EF
:042E4C00010200007F
:042E50003101000844
:042E54000D01000864
:102E5800010101000100000001000000000801401C
:102E680000080140000801400200040008000000BA
:102E7800151200082D120008451200085D120008FE
:102E88007512000800127A0010000000010000000E
:102E980044000020000000000000000000000000C6
:102EA800000000000000000000000000000000001A
:102EB800000000000000000000000000000000000A
:102EC80000000000000000000000000000000000FA
:102ED80000000000000000000000000000000000EA
:102EE80000000000000000000000000000000000DA
:042EF80000000000D6
:04000005080015E9F1
:00000001FF
